{
  "address": "0x3BeaaC603b445C7E8AdC46B3867404e1Bde9E047",
  "abi": [
    {
      "inputs": [
        {
          "internalType": "address",
          "name": "_owner",
          "type": "address"
        },
        {
          "internalType": "address",
          "name": "_rewardsToken",
          "type": "address"
        },
        {
          "internalType": "address",
          "name": "_stakingToken",
          "type": "address"
        },
        {
          "internalType": "uint256",
          "name": "_maxRewardRatePerToken",
          "type": "uint256"
        }
      ],
      "stateMutability": "nonpayable",
      "type": "constructor"
    },
    {
      "inputs": [
        {
          "internalType": "address",
          "name": "owner",
          "type": "address"
        }
      ],
      "name": "OwnableInvalidOwner",
      "type": "error"
    },
    {
      "inputs": [
        {
          "internalType": "address",
          "name": "account",
          "type": "address"
        }
      ],
      "name": "OwnableUnauthorizedAccount",
      "type": "error"
    },
    {
      "inputs": [],
      "name": "ReentrancyGuardReentrantCall",
      "type": "error"
    },
    {
      "inputs": [
        {
          "internalType": "address",
          "name": "token",
          "type": "address"
        }
      ],
      "name": "SafeERC20FailedOperation",
      "type": "error"
    },
    {
      "anonymous": false,
      "inputs": [
        {
          "indexed": false,
          "internalType": "uint256",
          "name": "newMaxRate",
          "type": "uint256"
        }
      ],
      "name": "MaxRewardRateUpdated",
      "type": "event"
    },
    {
      "anonymous": false,
      "inputs": [
        {
          "indexed": true,
          "internalType": "address",
          "name": "previousOwner",
          "type": "address"
        },
        {
          "indexed": true,
          "internalType": "address",
          "name": "newOwner",
          "type": "address"
        }
      ],
      "name": "OwnershipTransferred",
      "type": "event"
    },
    {
      "anonymous": false,
      "inputs": [
        {
          "indexed": false,
          "internalType": "address",
          "name": "token",
          "type": "address"
        },
        {
          "indexed": false,
          "internalType": "uint256",
          "name": "amount",
          "type": "uint256"
        }
      ],
      "name": "Recovered",
      "type": "event"
    },
    {
      "anonymous": false,
      "inputs": [
        {
          "indexed": false,
          "internalType": "uint256",
          "name": "reward",
          "type": "uint256"
        }
      ],
      "name": "RewardAdded",
      "type": "event"
    },
    {
      "anonymous": false,
      "inputs": [
        {
          "indexed": false,
          "internalType": "uint256",
          "name": "originalRate",
          "type": "uint256"
        },
        {
          "indexed": false,
          "internalType": "uint256",
          "name": "cappedRate",
          "type": "uint256"
        },
        {
          "indexed": false,
          "internalType": "uint256",
          "name": "withheldAmount",
          "type": "uint256"
        }
      ],
      "name": "RewardCapped",
      "type": "event"
    },
    {
      "anonymous": false,
      "inputs": [
        {
          "indexed": true,
          "internalType": "address",
          "name": "user",
          "type": "address"
        },
        {
          "indexed": false,
          "internalType": "uint256",
          "name": "reward",
          "type": "uint256"
        }
      ],
      "name": "RewardPaid",
      "type": "event"
    },
    {
      "anonymous": false,
      "inputs": [
        {
          "indexed": false,
          "internalType": "uint256",
          "name": "newDuration",
          "type": "uint256"
        }
      ],
      "name": "RewardsDurationUpdated",
      "type": "event"
    },
    {
      "anonymous": false,
      "inputs": [
        {
          "indexed": true,
          "internalType": "address",
          "name": "user",
          "type": "address"
        },
        {
          "indexed": false,
          "internalType": "uint256",
          "name": "amount",
          "type": "uint256"
        }
      ],
      "name": "Staked",
      "type": "event"
    },
    {
      "anonymous": false,
      "inputs": [
        {
          "indexed": true,
          "internalType": "address",
          "name": "staker",
          "type": "address"
        },
        {
          "indexed": true,
          "internalType": "address",
          "name": "recipient",
          "type": "address"
        },
        {
          "indexed": false,
          "internalType": "uint256",
          "name": "amount",
          "type": "uint256"
        }
      ],
      "name": "StakedFor",
      "type": "event"
    },
    {
      "anonymous": false,
      "inputs": [
        {
          "indexed": true,
          "internalType": "address",
          "name": "user",
          "type": "address"
        },
        {
          "indexed": false,
          "internalType": "uint256",
          "name": "amount",
          "type": "uint256"
        }
      ],
      "name": "Withdrawn",
      "type": "event"
    },
    {
      "anonymous": false,
      "inputs": [
        {
          "indexed": false,
          "internalType": "uint256",
          "name": "amount",
          "type": "uint256"
        }
      ],
      "name": "WithheldRewardsRecycled",
      "type": "event"
    },
    {
      "anonymous": false,
      "inputs": [
        {
          "indexed": false,
          "internalType": "uint256",
          "name": "amount",
          "type": "uint256"
        }
      ],
      "name": "WithheldRewardsWithdrawn",
      "type": "event"
    },
    {
      "inputs": [
        {
          "internalType": "uint256",
          "name": "reward",
          "type": "uint256"
        }
      ],
      "name": "addToReward",
      "outputs": [],
      "stateMutability": "nonpayable",
      "type": "function"
    },
    {
      "inputs": [
        {
          "internalType": "address",
          "name": "account",
          "type": "address"
        }
      ],
      "name": "balanceOf",
      "outputs": [
        {
          "internalType": "uint256",
          "name": "",
          "type": "uint256"
        }
      ],
      "stateMutability": "view",
      "type": "function"
    },
    {
      "inputs": [
        {
          "internalType": "address",
          "name": "account",
          "type": "address"
        }
      ],
      "name": "earned",
      "outputs": [
        {
          "internalType": "uint256",
          "name": "",
          "type": "uint256"
        }
      ],
      "stateMutability": "view",
      "type": "function"
    },
    {
      "inputs": [],
      "name": "exit",
      "outputs": [],
      "stateMutability": "nonpayable",
      "type": "function"
    },
    {
      "inputs": [],
      "name": "getEffectiveRewardRate",
      "outputs": [
        {
          "internalType": "uint256",
          "name": "",
          "type": "uint256"
        }
      ],
      "stateMutability": "view",
      "type": "function"
    },
    {
      "inputs": [],
      "name": "getReward",
      "outputs": [],
      "stateMutability": "nonpayable",
      "type": "function"
    },
    {
      "inputs": [],
      "name": "getRewardForDuration",
      "outputs": [
        {
          "internalType": "uint256",
          "name": "",
          "type": "uint256"
        }
      ],
      "stateMutability": "view",
      "type": "function"
    },
    {
      "inputs": [],
      "name": "getWithheldRewardRate",
      "outputs": [
        {
          "internalType": "uint256",
          "name": "",
          "type": "uint256"
        }
      ],
      "stateMutability": "view",
      "type": "function"
    },
    {
      "inputs": [],
      "name": "lastTimeRewardApplicable",
      "outputs": [
        {
          "internalType": "uint256",
          "name": "",
          "type": "uint256"
        }
      ],
      "stateMutability": "view",
      "type": "function"
    },
    {
      "inputs": [],
      "name": "lastUpdateTime",
      "outputs": [
        {
          "internalType": "uint256",
          "name": "",
          "type": "uint256"
        }
      ],
      "stateMutability": "view",
      "type": "function"
    },
    {
      "inputs": [],
      "name": "maxRewardRatePerToken",
      "outputs": [
        {
          "internalType": "uint256",
          "name": "",
          "type": "uint256"
        }
      ],
      "stateMutability": "view",
      "type": "function"
    },
    {
      "inputs": [
        {
          "internalType": "uint256",
          "name": "reward",
          "type": "uint256"
        }
      ],
      "name": "notifyRewardAmount",
      "outputs": [],
      "stateMutability": "nonpayable",
      "type": "function"
    },
    {
      "inputs": [],
      "name": "owner",
      "outputs": [
        {
          "internalType": "address",
          "name": "",
          "type": "address"
        }
      ],
      "stateMutability": "view",
      "type": "function"
    },
    {
      "inputs": [],
      "name": "periodFinish",
      "outputs": [
        {
          "internalType": "uint256",
          "name": "",
          "type": "uint256"
        }
      ],
      "stateMutability": "view",
      "type": "function"
    },
    {
      "inputs": [
        {
          "internalType": "address",
          "name": "tokenAddress",
          "type": "address"
        },
        {
          "internalType": "uint256",
          "name": "tokenAmount",
          "type": "uint256"
        }
      ],
      "name": "recoverERC20",
      "outputs": [],
      "stateMutability": "nonpayable",
      "type": "function"
    },
    {
      "inputs": [],
      "name": "recycleReward",
      "outputs": [],
      "stateMutability": "nonpayable",
      "type": "function"
    },
    {
      "inputs": [],
      "name": "renounceOwnership",
      "outputs": [],
      "stateMutability": "nonpayable",
      "type": "function"
    },
    {
      "inputs": [],
      "name": "rewardPerToken",
      "outputs": [
        {
          "internalType": "uint256",
          "name": "",
          "type": "uint256"
        }
      ],
      "stateMutability": "view",
      "type": "function"
    },
    {
      "inputs": [],
      "name": "rewardPerTokenStored",
      "outputs": [
        {
          "internalType": "uint256",
          "name": "",
          "type": "uint256"
        }
      ],
      "stateMutability": "view",
      "type": "function"
    },
    {
      "inputs": [],
      "name": "rewardRate",
      "outputs": [
        {
          "internalType": "uint256",
          "name": "",
          "type": "uint256"
        }
      ],
      "stateMutability": "view",
      "type": "function"
    },
    {
      "inputs": [
        {
          "internalType": "address",
          "name": "",
          "type": "address"
        }
      ],
      "name": "rewards",
      "outputs": [
        {
          "internalType": "uint256",
          "name": "",
          "type": "uint256"
        }
      ],
      "stateMutability": "view",
      "type": "function"
    },
    {
      "inputs": [],
      "name": "rewardsDuration",
      "outputs": [
        {
          "internalType": "uint256",
          "name": "",
          "type": "uint256"
        }
      ],
      "stateMutability": "view",
      "type": "function"
    },
    {
      "inputs": [],
      "name": "rewardsToken",
      "outputs": [
        {
          "internalType": "contract IERC20",
          "name": "",
          "type": "address"
        }
      ],
      "stateMutability": "view",
      "type": "function"
    },
    {
      "inputs": [
        {
          "internalType": "uint256",
          "name": "_maxRewardRatePerToken",
          "type": "uint256"
        }
      ],
      "name": "setMaxRewardRatePerToken",
      "outputs": [],
      "stateMutability": "nonpayable",
      "type": "function"
    },
    {
      "inputs": [
        {
          "internalType": "uint256",
          "name": "_rewardsDuration",
          "type": "uint256"
        }
      ],
      "name": "setRewardsDuration",
      "outputs": [],
      "stateMutability": "nonpayable",
      "type": "function"
    },
    {
      "inputs": [
        {
          "internalType": "uint256",
          "name": "amount",
          "type": "uint256"
        }
      ],
      "name": "stake",
      "outputs": [],
      "stateMutability": "nonpayable",
      "type": "function"
    },
    {
      "inputs": [
        {
          "internalType": "uint256",
          "name": "amount",
          "type": "uint256"
        },
        {
          "internalType": "address",
          "name": "recipient",
          "type": "address"
        }
      ],
      "name": "stakeFor",
      "outputs": [],
      "stateMutability": "nonpayable",
      "type": "function"
    },
    {
      "inputs": [],
      "name": "stakingToken",
      "outputs": [
        {
          "internalType": "contract IERC20",
          "name": "",
          "type": "address"
        }
      ],
      "stateMutability": "view",
      "type": "function"
    },
    {
      "inputs": [],
      "name": "totalSupply",
      "outputs": [
        {
          "internalType": "uint256",
          "name": "",
          "type": "uint256"
        }
      ],
      "stateMutability": "view",
      "type": "function"
    },
    {
      "inputs": [
        {
          "internalType": "address",
          "name": "newOwner",
          "type": "address"
        }
      ],
      "name": "transferOwnership",
      "outputs": [],
      "stateMutability": "nonpayable",
      "type": "function"
    },
    {
      "inputs": [
        {
          "internalType": "uint256",
          "name": "timestamp",
          "type": "uint256"
        }
      ],
      "name": "updatePeriodFinish",
      "outputs": [],
      "stateMutability": "nonpayable",
      "type": "function"
    },
    {
      "inputs": [
        {
          "internalType": "address",
          "name": "",
          "type": "address"
        }
      ],
      "name": "userRewardPerTokenPaid",
      "outputs": [
        {
          "internalType": "uint256",
          "name": "",
          "type": "uint256"
        }
      ],
      "stateMutability": "view",
      "type": "function"
    },
    {
      "inputs": [
        {
          "internalType": "uint256",
          "name": "amount",
          "type": "uint256"
        }
      ],
      "name": "withdraw",
      "outputs": [],
      "stateMutability": "nonpayable",
      "type": "function"
    },
    {
      "inputs": [],
      "name": "withdrawWithheldRewards",
      "outputs": [],
      "stateMutability": "nonpayable",
      "type": "function"
    },
    {
      "inputs": [],
      "name": "withheldRewards",
      "outputs": [
        {
          "internalType": "uint256",
          "name": "",
          "type": "uint256"
        }
      ],
      "stateMutability": "view",
      "type": "function"
    }
  ],
  "transactionHash": "0x9ff563de7a82e89db30b8ae9988ff7b39579892cf3823856e8059029924911d3",
  "args": [
    "0x2c2bc76B97BCe84A5a9c6e2835AB13306B964cf1",
    "0x62B8B11039FcfE5aB0C56E502b1C372A3d2a9c7A",
    "0x62B8B11039FcfE5aB0C56E502b1C372A3d2a9c7A",
    "1585489599"
  ],
  "numDeployments": 1,
  "solcInputHash": "5806afeb545ac383f659460daf889b20",
  "bytecode": "0x60c06040526000600155600060025562093a806003553480156200002257600080fd5b5060405162001ffa38038062001ffa8339810160408190526200004591620001f8565b836001600160a01b0381166200007657604051631e4fbdf760e01b8152600060048201526024015b60405180910390fd5b62000081816200018b565b5060017f9b779b17422d0df92223018b32b4d1fa46e071723d6817e2486d003becc55f00556001600160a01b0382166200010a5760405162461bcd60e51b8152602060048201526024808201527f5374616b696e6720746f6b656e2063616e6e6f74206265207a65726f206164646044820152637265737360e01b60648201526084016200006d565b6001600160a01b0383166200016e5760405162461bcd60e51b8152602060048201526024808201527f5265776172647320746f6b656e2063616e6e6f74206265207a65726f206164646044820152637265737360e01b60648201526084016200006d565b6001600160a01b0392831660a0529116608052600855506200024a565b600080546001600160a01b038381166001600160a01b0319831681178455604051919092169283917f8be0079c531659141344cd1fd0a4f28419497f9722a3daafe3b4186f6b6457e09190a35050565b80516001600160a01b0381168114620001f357600080fd5b919050565b600080600080608085870312156200020f57600080fd5b6200021a85620001db565b93506200022a60208601620001db565b92506200023a60408601620001db565b6060959095015193969295505050565b60805160a051611d4b620002af6000396000818161041b0152818161056b0152818161077801528181610c220152818161111e015261191401526000818161033f0152818161095c01528181610e960152818161109301526113a70152611d4b6000f3fe608060405234801561001057600080fd5b50600436106102105760003560e01c806372f702f311610125578063cd3daf9d116100ad578063df136d651161007c578063df136d651461043d578063e9fad8ee14610446578063ebe2b12b1461044e578063f2fde38b14610457578063f94362ef1461046a57600080fd5b8063cd3daf9d146103fd578063ceb3bb8214610405578063d08acd931461040e578063d1af0c7d1461041657600080fd5b80638b876347116100f45780638b8763471461039d5780638da5cb5b146103bd578063a694fc3a146103ce578063c8f33c91146103e1578063cc1a378f146103ea57600080fd5b806372f702f31461033a5780637b0a47ee1461037957806380faa57d146103825780638980f11f1461038a57600080fd5b8063313c27a9116101a857806351746bb21161017757806351746bb2146102d0578063556f6e6b146102e35780636a03a9e2146102f657806370a0823114610309578063715018a61461033257600080fd5b8063313c27a9146102a3578063386a9525146102ac5780633c6b16ab146102b55780633d18b912146102c857600080fd5b80631c1f78eb116101e45780631c1f78eb1461026d5780631f30b317146102755780632ce618fa1461027d5780632e1a7d4d1461029057600080fd5b80628cc262146102155780630700037d1461023b5780630acccd991461025b57806318160ddd14610265575b600080fd5b610228610223366004611bbd565b610472565b6040519081526020015b60405180910390f35b610228610249366004611bbd565b60076020526000908152604090205481565b6102636104ef565b005b600a54610228565b6102286105ce565b6102286105ea565b61026361028b366004611bd8565b61061b565b61026361029e366004611bd8565b6107c5565b61022860095481565b61022860035481565b6102636102c3366004611bd8565b6109d2565b610263610aec565b6102636102de366004611bf1565b610ca3565b6102636102f1366004611bd8565b610f1b565b610263610304366004611bd8565b61102c565b610228610317366004611bbd565b6001600160a01b03166000908152600b602052604090205490565b610263611069565b6103617f000000000000000000000000000000000000000000000000000000000000000081565b6040516001600160a01b039091168152602001610232565b61022860025481565b61022861107b565b610263610398366004611c1d565b611089565b6102286103ab366004611bbd565b60066020526000908152604090205481565b6000546001600160a01b0316610361565b6102636103dc366004611bd8565b611213565b61022860045481565b6102636103f8366004611bd8565b611401565b610228611500565b61022860085481565b61026361156a565b6103617f000000000000000000000000000000000000000000000000000000000000000081565b61022860055481565b6102636116df565b61022860015481565b610263610465366004611bbd565b611700565b61022861173b565b6001600160a01b0381166000908152600760209081526040808320546006909252822054670de0b6b3a7640000906104a8611500565b6104b29190611c5d565b6001600160a01b0385166000908152600b60205260409020546104d59190611c70565b6104df9190611c87565b6104e99190611ca9565b92915050565b6104f761178d565b6009548061054c5760405162461bcd60e51b815260206004820152601760248201527f7769746868656c6452657761726473206973207a65726f00000000000000000060448201526064015b60405180910390fd5b6105926105616000546001600160a01b031690565b6001600160a01b037f00000000000000000000000000000000000000000000000000000000000000001690836117ba565b60006009556040518181527f18c1dc2c0df83009a3a19b2f849d9868d7ec0059f77e116f956b73ec987b57a1906020015b60405180910390a150565b60006003546105db61173b565b6105e59190611c70565b905090565b6000806105f561173b565b90508060025411610607576000610615565b806002546106159190611c5d565b91505090565b6106236117f4565b60008061062e61107b565b9050610638611500565b600555600a54156106dc57600061064d61173b565b90508060025411156106da576000600454836106699190611c5d565b90506000818360025461067c9190611c5d565b6106869190611c70565b905080156106d75780600960008282546106a09190611ca9565b909155505060025460408051918252602082018590528101829052600080516020611cf68339815191529060600160405180910390a15b50505b505b60048190556001600160a01b03821615610725576106f982610472565b6001600160a01b0383166000908152600760209081526040808320939093556005546006909152919020555b6000831161076b5760405162461bcd60e51b815260206004820152601360248201527210d85b9b9bdd08185919080c081c995dd85c99606a1b6044820152606401610543565b6107a06001600160a01b037f000000000000000000000000000000000000000000000000000000000000000016333086611810565b6107a98361184c565b50506107c26001600080516020611cd683398151915255565b50565b6107cd6117f4565b3360006107d861107b565b90506107e2611500565b600555600a54156108865760006107f761173b565b9050806002541115610884576000600454836108139190611c5d565b9050600081836002546108269190611c5d565b6108309190611c70565b9050801561088157806009600082825461084a9190611ca9565b909155505060025460408051918252602082018590528101829052600080516020611cf68339815191529060600160405180910390a15b50505b505b60048190556001600160a01b038216156108cf576108a382610472565b6001600160a01b0383166000908152600760209081526040808320939093556005546006909152919020555b600083116109135760405162461bcd60e51b8152602060048201526011602482015270043616e6e6f74207769746864726177203607c1b6044820152606401610543565b82600a60008282546109259190611c5d565b9091555050336000908152600b602052604081208054859290610949908490611c5d565b9091555061098390506001600160a01b037f00000000000000000000000000000000000000000000000000000000000000001633856117ba565b60405183815233907f7084f5476618d8e60b11ef0d7d3f06914655adb8793e28ff7f018d4c76d505d5906020015b60405180910390a250506107c26001600080516020611cd683398151915255565b6109da61178d565b6109e26117f4565b6000806109ed61107b565b90506109f7611500565b600555600a5415610a9b576000610a0c61173b565b9050806002541115610a9957600060045483610a289190611c5d565b905060008183600254610a3b9190611c5d565b610a459190611c70565b90508015610a96578060096000828254610a5f9190611ca9565b909155505060025460408051918252602082018590528101829052600080516020611cf68339815191529060600160405180910390a15b50505b505b60048190556001600160a01b038216156107a057610ab882610472565b6001600160a01b0383166000908152600760209081526040808320939093556005546006909152919020556107a98361184c565b610af46117f4565b336000610aff61107b565b9050610b09611500565b600555600a5415610bad576000610b1e61173b565b9050806002541115610bab57600060045483610b3a9190611c5d565b905060008183600254610b4d9190611c5d565b610b579190611c70565b90508015610ba8578060096000828254610b719190611ca9565b909155505060025460408051918252602082018590528101829052600080516020611cf68339815191529060600160405180910390a15b50505b505b60048190556001600160a01b03821615610bf657610bca82610472565b6001600160a01b0383166000908152600760209081526040808320939093556005546006909152919020555b336000908152600760205260409020548015610c875733600081815260076020526040812055610c51907f00000000000000000000000000000000000000000000000000000000000000006001600160a01b031690836117ba565b60405181815233907fe2403640ba68fed3a2f88b7557551d1993f84b99bb10ff833f0cf8db0c5e04869060200160405180910390a25b505050610ca16001600080516020611cd683398151915255565b565b610cab6117f4565b806000610cb661107b565b9050610cc0611500565b600555600a5415610d64576000610cd561173b565b9050806002541115610d6257600060045483610cf19190611c5d565b905060008183600254610d049190611c5d565b610d0e9190611c70565b90508015610d5f578060096000828254610d289190611ca9565b909155505060025460408051918252602082018590528101829052600080516020611cf68339815191529060600160405180910390a15b50505b505b60048190556001600160a01b03821615610dad57610d8182610472565b6001600160a01b0383166000908152600760209081526040808320939093556005546006909152919020555b60008411610dee5760405162461bcd60e51b815260206004820152600e60248201526d043616e6e6f74207374616b6520360941b6044820152606401610543565b6001600160a01b038316610e445760405162461bcd60e51b815260206004820152601d60248201527f43616e6e6f74207374616b6520666f72207a65726f20616464726573730000006044820152606401610543565b83600a6000828254610e569190611ca9565b90915550506001600160a01b0383166000908152600b602052604081208054869290610e83908490611ca9565b90915550610ebe90506001600160a01b037f000000000000000000000000000000000000000000000000000000000000000016333087611810565b6040518481526001600160a01b0384169033907ff27841bf2ce46c8c33a68e103ff4238ad9192a4156d62c4b449f834e914d12919060200160405180910390a35050610f176001600080516020611cd683398151915255565b5050565b610f2361178d565b600080610f2e61107b565b9050610f38611500565b600555600a5415610fdc576000610f4d61173b565b9050806002541115610fda57600060045483610f699190611c5d565b905060008183600254610f7c9190611c5d565b610f869190611c70565b90508015610fd7578060096000828254610fa09190611ca9565b909155505060025460408051918252602082018590528101829052600080516020611cf68339815191529060600160405180910390a15b50505b505b60048190556001600160a01b0382161561102557610ff982610472565b6001600160a01b0383166000908152600760209081526040808320939093556005546006909152919020555b5050600155565b61103461178d565b60088190556040518181527f9041b23d05af9bceefc73becffefd1887907ad55c3d6c6655230b37ef87dbb07906020016105c3565b61107161178d565b610ca16000611a36565b60006105e542600154611a86565b61109161178d565b7f00000000000000000000000000000000000000000000000000000000000000006001600160a01b0316826001600160a01b03160361111c5760405162461bcd60e51b815260206004820152602160248201527f43616e6e6f7420776974686472617720746865207374616b696e6720746f6b656044820152603760f91b6064820152608401610543565b7f00000000000000000000000000000000000000000000000000000000000000006001600160a01b0316826001600160a01b0316036111a75760405162461bcd60e51b815260206004820152602160248201527f43616e6e6f7420776974686472617720746865207265776172647320746f6b656044820152603760f91b6064820152608401610543565b6111cd6111bc6000546001600160a01b031690565b6001600160a01b03841690836117ba565b604080516001600160a01b0384168152602081018390527f8c1256b8896378cd5044f80c202f9772b9d77dc85c8a6eb51967210b09bfaa28910160405180910390a15050565b61121b6117f4565b33600061122661107b565b9050611230611500565b600555600a54156112d457600061124561173b565b90508060025411156112d2576000600454836112619190611c5d565b9050600081836002546112749190611c5d565b61127e9190611c70565b905080156112cf5780600960008282546112989190611ca9565b909155505060025460408051918252602082018590528101829052600080516020611cf68339815191529060600160405180910390a15b50505b505b60048190556001600160a01b0382161561131d576112f182610472565b6001600160a01b0383166000908152600760209081526040808320939093556005546006909152919020555b6000831161135e5760405162461bcd60e51b815260206004820152600e60248201526d043616e6e6f74207374616b6520360941b6044820152606401610543565b82600a60008282546113709190611ca9565b9091555050336000908152600b602052604081208054859290611394908490611ca9565b909155506113cf90506001600160a01b037f000000000000000000000000000000000000000000000000000000000000000016333086611810565b60405183815233907f9e71bc8eea02a63969f509818f2dafb9254532904319f9dbda79b67bd34a5f3d906020016109b1565b61140961178d565b600081116114695760405162461bcd60e51b815260206004820152602760248201527f52657761726473206475726174696f6e206d75737420626520677265617465726044820152660207468616e20360cc1b6064820152608401610543565b60015442116114cb5760405162461bcd60e51b815260206004820152602860248201527f50726576696f7573207265776172647320706572696f64206d75737420626520604482015267636f6d706c65746560c01b6064820152608401610543565b60038190556040518181527ffb46ca5a5e06d4540d6387b930a7c978bce0db5f449ec6b3f5d07c6e1d44f2d3906020016105c3565b6000600a54600003611513575060055490565b600061151d61173b565b9050600a5460045461152d61107b565b6115379190611c5d565b6115419083611c70565b61155390670de0b6b3a7640000611c70565b61155d9190611c87565b6005546106159190611ca9565b6115726117f4565b60008061157d61107b565b9050611587611500565b600555600a541561162b57600061159c61173b565b9050806002541115611629576000600454836115b89190611c5d565b9050600081836002546115cb9190611c5d565b6115d59190611c70565b905080156116265780600960008282546115ef9190611ca9565b909155505060025460408051918252602082018590528101829052600080516020611cf68339815191529060600160405180910390a15b50505b505b60048190556001600160a01b038216156116745761164882610472565b6001600160a01b0383166000908152600760209081526040808320939093556005546006909152919020555b6000600954116116bc5760405162461bcd60e51b81526020600482015260136024820152726e6f207769746868656c64207265776172647360681b6044820152606401610543565b6116c6600061184c565b5050610ca16001600080516020611cd683398151915255565b336000908152600b60205260409020546116f8906107c5565b610ca1610aec565b61170861178d565b6001600160a01b03811661173257604051631e4fbdf760e01b815260006004820152602401610543565b6107c281611a36565b6000600a546000148061174e5750600854155b1561175a575060025490565b6000670de0b6b3a7640000600a546008546117759190611c70565b61177f9190611c87565b905061061560025482611a86565b6000546001600160a01b03163314610ca15760405163118cdaa760e01b8152336004820152602401610543565b6117c78383836001611a99565b6117ef57604051635274afe760e01b81526001600160a01b0384166004820152602401610543565b505050565b6117fc611aff565b6002600080516020611cd683398151915255565b61181e848484846001611b2f565b61184657604051635274afe760e01b81526001600160a01b0385166004820152602401610543565b50505050565b600954801561188e5760006009556040518181527f9a04bf9f3efcb1857d5d1f59a552f90815cbf6a0c4c6e6c31baf0018963b4c379060200160405180910390a15b600061189a8284611ca9565b905060015442106118ba576003546118b29082611c87565b6002556118fc565b6000426001546118ca9190611c5d565b90506000600254826118dc9190611c70565b6003549091506118ec8285611ca9565b6118f69190611c87565b60025550505b6040516370a0823160e01b81523060048201526000907f00000000000000000000000000000000000000000000000000000000000000006001600160a01b0316906370a0823190602401602060405180830381865afa158015611963573d6000803e3d6000fd5b505050506040513d601f19601f820116820180604052508101906119879190611cbc565b9050600354816119979190611c87565b60025411156119e85760405162461bcd60e51b815260206004820152601860248201527f50726f76696465642072657761726420746f6f206869676800000000000000006044820152606401610543565b4260048190556003546119fa91611ca9565b6001556040518281527fde88a922e0d3b88b24e9623efeb464919c6bf9f66857a65e2bfcf2ce87a9433d9060200160405180910390a150505050565b600080546001600160a01b038381166001600160a01b0319831681178455604051919092169283917f8be0079c531659141344cd1fd0a4f28419497f9722a3daafe3b4186f6b6457e09190a35050565b60008282188284100282185b9392505050565b60405163a9059cbb60e01b60008181526001600160a01b038616600452602485905291602083604481808b5af192506001600051148316611af3578383151615611ae6573d6000823e3d81fd5b6000873b113d1516831692505b60405250949350505050565b600080516020611cd683398151915254600203610ca157604051633ee5aeb560e01b815260040160405180910390fd5b6040516323b872dd60e01b60008181526001600160a01b038781166004528616602452604485905291602083606481808c5af192506001600051148316611b8f578383151615611b82573d6000823e3d81fd5b6000883b113d1516831692505b60405250600060605295945050505050565b80356001600160a01b0381168114611bb857600080fd5b919050565b600060208284031215611bcf57600080fd5b611a9282611ba1565b600060208284031215611bea57600080fd5b5035919050565b60008060408385031215611c0457600080fd5b82359150611c1460208401611ba1565b90509250929050565b60008060408385031215611c3057600080fd5b611c3983611ba1565b946020939093013593505050565b634e487b7160e01b600052601160045260246000fd5b818103818111156104e9576104e9611c47565b80820281158282048414176104e9576104e9611c47565b600082611ca457634e487b7160e01b600052601260045260246000fd5b500490565b808201808211156104e9576104e9611c47565b600060208284031215611cce57600080fd5b505191905056fe9b779b17422d0df92223018b32b4d1fa46e071723d6817e2486d003becc55f00dac2580b2fb715cfdb3c1f2851d34eacb3631c873912801344f0aa8f8e37a481a26469706673582212207419b17d374c1d6c60857179ea2a340d4ccafa5b9f79e53ede09ec1e0c1c3f6464736f6c63430008170033",
  "devdoc": {
    "errors": {
      "OwnableInvalidOwner(address)": [
        {
          "details": "The owner is not a valid owner account. (eg. `address(0)`)"
        }
      ],
      "OwnableUnauthorizedAccount(address)": [
        {
          "details": "The caller account is not authorized to perform an operation."
        }
      ],
      "ReentrancyGuardReentrantCall()": [
        {
          "details": "Unauthorized reentrant call."
        }
      ],
      "SafeERC20FailedOperation(address)": [
        {
          "details": "An operation with an ERC-20 token failed."
        }
      ]
    },
    "kind": "dev",
    "methods": {
      "owner()": {
        "details": "Returns the address of the current owner."
      },
      "renounceOwnership()": {
        "details": "Leaves the contract without owner. It will not be possible to call `onlyOwner` functions. Can only be called by the current owner. NOTE: Renouncing ownership will leave the contract without an owner, thereby disabling any functionality that is only available to the owner."
      },
      "transferOwnership(address)": {
        "details": "Transfers ownership of the contract to a new account (`newOwner`). Can only be called by the current owner."
      }
    },
    "version": 1
  },
  "userdoc": {
    "kind": "user",
    "methods": {},
    "version": 1
  },
  "storageLayout": {
    "storage": [
      {
        "astId": 8,
        "contract": "contracts/StakingRewardsCappedV2.sol:StakingRewardsCappedV2",
        "label": "_owner",
        "offset": 0,
        "slot": "0",
        "type": "t_address"
      },
      {
        "astId": 4555,
        "contract": "contracts/StakingRewardsCappedV2.sol:StakingRewardsCappedV2",
        "label": "periodFinish",
        "offset": 0,
        "slot": "1",
        "type": "t_uint256"
      },
      {
        "astId": 4558,
        "contract": "contracts/StakingRewardsCappedV2.sol:StakingRewardsCappedV2",
        "label": "rewardRate",
        "offset": 0,
        "slot": "2",
        "type": "t_uint256"
      },
      {
        "astId": 4561,
        "contract": "contracts/StakingRewardsCappedV2.sol:StakingRewardsCappedV2",
        "label": "rewardsDuration",
        "offset": 0,
        "slot": "3",
        "type": "t_uint256"
      },
      {
        "astId": 4563,
        "contract": "contracts/StakingRewardsCappedV2.sol:StakingRewardsCappedV2",
        "label": "lastUpdateTime",
        "offset": 0,
        "slot": "4",
        "type": "t_uint256"
      },
      {
        "astId": 4565,
        "contract": "contracts/StakingRewardsCappedV2.sol:StakingRewardsCappedV2",
        "label": "rewardPerTokenStored",
        "offset": 0,
        "slot": "5",
        "type": "t_uint256"
      },
      {
        "astId": 4569,
        "contract": "contracts/StakingRewardsCappedV2.sol:StakingRewardsCappedV2",
        "label": "userRewardPerTokenPaid",
        "offset": 0,
        "slot": "6",
        "type": "t_mapping(t_address,t_uint256)"
      },
      {
        "astId": 4573,
        "contract": "contracts/StakingRewardsCappedV2.sol:StakingRewardsCappedV2",
        "label": "rewards",
        "offset": 0,
        "slot": "7",
        "type": "t_mapping(t_address,t_uint256)"
      },
      {
        "astId": 4575,
        "contract": "contracts/StakingRewardsCappedV2.sol:StakingRewardsCappedV2",
        "label": "maxRewardRatePerToken",
        "offset": 0,
        "slot": "8",
        "type": "t_uint256"
      },
      {
        "astId": 4577,
        "contract": "contracts/StakingRewardsCappedV2.sol:StakingRewardsCappedV2",
        "label": "withheldRewards",
        "offset": 0,
        "slot": "9",
        "type": "t_uint256"
      },
      {
        "astId": 4579,
        "contract": "contracts/StakingRewardsCappedV2.sol:StakingRewardsCappedV2",
        "label": "_totalSupply",
        "offset": 0,
        "slot": "10",
        "type": "t_uint256"
      },
      {
        "astId": 4583,
        "contract": "contracts/StakingRewardsCappedV2.sol:StakingRewardsCappedV2",
        "label": "_balances",
        "offset": 0,
        "slot": "11",
        "type": "t_mapping(t_address,t_uint256)"
      }
    ],
    "types": {
      "t_address": {
        "encoding": "inplace",
        "label": "address",
        "numberOfBytes": "20"
      },
      "t_mapping(t_address,t_uint256)": {
        "encoding": "mapping",
        "key": "t_address",
        "label": "mapping(address => uint256)",
        "numberOfBytes": "32",
        "value": "t_uint256"
      },
      "t_uint256": {
        "encoding": "inplace",
        "label": "uint256",
        "numberOfBytes": "32"
      }
    }
  }
}